:1000000045C0000060C000005EC000005CC0000091
:100010005AC0000058C0000056C0000054C0000084
:1000200052C0000050C000004EC000004CC0000094
:100030004AC00000ACC0000046C0000044C0000040
:1000400042C0000040C000003EC000003CC00000B4
:100050003AC0000038C0000036C0000034C00000C4
:1000600032C0000030C000002EC000002CC00000D4
:100070002AC0000028C0000026C0000024C00000E4
:1000800022C0000020C000001EC0000011241FBEBE
:10009000CFEFD0E4DEBFCDBF11E0A0E0B1E0EEE4F1
:1000A000F3E000E00BBF02C007900D92A430B1074F
:1000B000D9F721E0A4E0B1E001C01D92AD30B20754
:1000C000E1F71ED142C19CCF181619065CF00895C5
:1000D000000021503109E1F74F5F5F4F841795070A
:1000E00019F4089540E050E027E033E0F1CF5E9846
:1000F00088B95F9A00005F9882E090E0E5CF0895AC
:1001000081E0F5CF0895813118F48158F0CF08953A
:100110008155EDCF089584E690E0D6DF88E3E7DFF0
:1001200086E0E5DF8FE0E3DF81E0E1DF8AE090E079
:10013000CBCF08955E9A88B95F9A00005F9881E0FE
:1001400090E0C2CF08958BE0809381008DE790E02E
:10015000909389008093880082E080936F001092D2
:100160008500109284008091000190910101A0917E
:100170000201B09103018093050190930601A093C1
:100180000701B09308018FB780688FBF08951F9251
:100190000F920FB60F9211248F939F93AF93BF933B
:1001A0008091050190910601A0910701B09108018D
:1001B0000197A109B1098093050190930601A093CD
:1001C0000701B0930801892B8A2B8B2B99F481E0CE
:1001D000809309018091000190910101A091020199
:1001E000B09103018093050190930601A09307014C
:1001F000B0930801BF91AF919F918F910F900FBE67
:100200000F901F90189560930001709301018093E7
:10021000020190930301609305017093060180939E
:10022000070190930801089580B191E0282F217073
:1002300080FD90E090930C0180B180958270809356
:100240000B0190910A019130F1F028F0923031F1D8
:10025000933091F138C0211106C081114DC081E069
:1002600080930A0136C0222339F0882309F447C05D
:1002700082E080930A0135C0882309F440C083E0FE
:1002800080930A0136C0211106C0882311F183E052
:1002900080930A012EC010920A010895222319F0BA
:1002A00081111FC006C0882321F083E080930A01DA
:1002B00020C010920A010895211102C0811119C0B5
:1002C00010920A010895923061F0933091F09130CC
:1002D000B1F480910401893090F48F5F8093040120
:1002E000089580910401882351F081508093040186
:1002F00008951092040108952111BACFC0CF089536
:1003000011B88FEF82B987B918B88AB91BB868EEEF
:1003100073E080E090E077DF16DFFDDEF1DE109223
:100320000A011092040181E0EEDE7EDF809104017B
:10033000805D00DF809109018111F5CF10920901E4
:0E034000809109018823D1F3EECFF894FFCF0E
:04034E0001000000AA
:00000001FF
